:1000000000308A002B2B00000A108A100A11820788
:100010000D340A3450346F347434253463346E3400
:10002000633469346134203464346F3420346D3483
:100030006F3474346F3472343A34203425342E34AF
:10004000333466342534253400343130840083134E
:100050000008031938280630F800F701F70B2E289E
:10006000F80B2D287B30F700F70B3428800B2B285A
:100070000034803083169F0083129F011F140130CB
:10008000B10025208A110A12902BB101B2011F156F
:100090001F194828B2011E08B1003108B200B10191
:1000A00083161E088312B1043108F8003208F900E3
:1000B0008A110A12992B8E30F7003208F8003108A5
:1000C000F900FA01F808031D6F287908F800F90112
:1000D0000830F702F808031D6F28F701772803108E
:1000E000F81B7628F90DF80DF7036F28F8138A111D
:1000F0000A129E2B40080319EA28C8004408031975
:10010000EA28C80703188B287F30C802031CEA2896
:100110000319EA288F288130C8070318EA284808FD
:10012000F700F801F901FA014108CC00CC174208A8
:10013000CB004308CA001830C800C9014A1CB828BF
:100140004708FA07031CAA28F90A031DAA28F80A77
:100150000319C9174608F907031CB128F80A03193F
:10016000C9174508C200C2174208F8070318C91783
:10017000C90DF80CF90CFA0CCC0CCB0CCA0C031002
:10018000C80B9D280130F7070318EA28F81BCF2871
:10019000CC0DFA0DF90DF80DF7030319EA28CC1F61
:1001A000E028FA0A031DE028F90A031DE028F80AEE
:1001B000031DE028F80CF90CFA0CF70A0319EA28D9
:1001C0004108C9004508C906C91FE828F817EE28E4
:1001D000F813EE28F701F801F901FA0100343508A7
:1001E0000319B429C10039080319B429C102031C39
:1001F000FE287F30C1070318B42904298130C102C9
:10020000031CB4290319B4294108F700F801F901C6
:10021000FA01C0013608BF00BF173708BE00380812
:10022000BD001930C1003C08BD0203182729013068
:10023000BE0203182729BF0203182729C00203188A
:100240002729C00ABF0ABE0A3C08BD0759293B0836
:10025000BE02031842290130BF0203184229C0021E
:1002600003184229C00ABF0A3B08BE073C08BD0765
:10027000031C5929BE0A031D5929BF0A031D592908
:10028000C00A59293A088038BF020318582901309A
:10029000C00203185829C00A3A088038BF073B0833
:1002A000BE07031C3629BF0A031D3629C00A36299A
:1002B0007A14C10B5C2967290310BD0DBE0DBF0D5B
:1002C000C00D0310FA0DF90DF80DC20D1329421CD3
:1002D0006F290310F80CF90CFA0CC20C7229F70301
:1002E0000319B429C21B9B290310BD0DBE0DBF0D00
:1002F000C00D3C08BD02031887290130BE02031857
:100300008729BF0203188729C002031CAA293B08BA
:10031000BE02031892290130BF0203189229C002BD
:10032000031CAA293A088038BF0203189B29013010
:10033000C002031CAA29FA0A031DAA29F90A031DEF
:10034000AA29F80A031DAA29F70A0319B429F80CE7
:10035000F90CFA0C3608C1003A08C106C11FB229CF
:10036000F817B829F813B829F701F801F901FA01CB
:1003700000343208B9003608B906B91FC429031180
:100380000310B21B0314F7293208B9003508BA006C
:100390003108BA020319D229B91FF7290308013A13
:1003A0008300F7293608BA003208BA020319DE2999
:1003B000B91FF7290308013A8300F7293708BA0063
:1003C0003308BA020319EA29B91FF7290308013AC9
:1003D0008300F7293808BA003408BA020319F6294D
:1003E000B91FF7290308013A8300F72903100034E5
:1003F0004008B63CC000FA014108C400C117031010
:10040000C10CC20CC30CFA0CF90CF80CF70CC00BA5
:10041000FF29C41F162AF709F809F909FA09F70A8A
:100420000319F80A0319F90A0319FA0A8A110A12B8
:10043000832AF701F801F901FA01C801C901CA01CB
:10044000CB0147084604450444040319572A2030C9
:10045000CC000310C00DC10DC20DC30DC80DC90DD8
:10046000CA0DCB0D47084B02031D402A46084A021D
:10047000031D402A45084902031D402A440848023A
:10048000031C512A4408C8024508031C450FC90231
:100490004608031C460FCA024708031C470FCB023D
:1004A0000314F70DF80DF90DFA0DCC0B292A48307D
:1004B0008400831300340408B8003708BA00031915
:1004C0007A2A3608C3003508C2003408C100330850
:1004D000C000C701C6012030C5008230C4007A20A8
:1004E0007A08B6007908B5007808B4007708B30038
:1004F000BA0B612A3608C3003508C2003408C100AF
:100500003308C000F8297A08B6007908B5007808E1
:10051000B4007708B300B61F9A2AB803B816B30917
:10052000B409B509B609B30A0319B40A0319B50A1F
:100530000319B60A3B30BF009A30BE00CA30BD0076
:10054000BC010A30BA0037080319B80A3608C300DC
:100550003508C2003408C1003308C0003F08C70096
:100560003E08C6003D08C5003C08C400192200082A
:10057000B300840A0008B400840A0008B500840AA5
:100580000008B600FD308407F708031DDA2A370A91
:100590003A020319DA2A38080319DC2A0F393A0219
:1005A0000319D42A0318102BB81B102B381BDC2A74
:1005B00020300B2B2030B805B81EEB2AB8123708B4
:1005C000031DB8037708B8002D300C1EE52A9900EA
:1005D0003808F700B80137083A02031DFA2A7708ED
:1005E000B8002E300C1EF22A99003808F70020308F
:1005F000B80500303030B81E0B2BB8123708031D79
:10060000B8037708B8002D300C1E042B9900380869
:10061000F700B8013030F70777080C1E0D2B990052
:100620003F08C3003E08C2003D08C1003C08C000AE
:10063000C701C601C5010A30C40019227A08BF00EB
:100640007908BE007808BD007708BC00BA0BA62A5E
:100650008A110A12382C840183131F3083058130DC
:1006600083169900A6309800903083129800831664
:100670001F149F141F159F1107309C00FF30831219
:10068000A000A101A201A301A401A501A601A70147
:10069000A80183161F149F141F159F1183121F108A
:1006A0009412A012200883168700831220162008B7
:1006B000831687008312A01120088316870001305B
:1006C000831294000030831694000108C039013869
:1006D0008100831290010030F800053892007C30D0
:1006E0008316920007309C0005081030F700F70BC6
:1006F000772B00001C0883120D1383169D018312B3
:100700002011200883168700831207110C309700F0
:10071000FF30831685008600BB308700831239289E
:100720002408A8002308A7002208A6002108A50085
:1007300045287908B2007808B1005B28C301C201DE
:100740002030C1008130C0007A08C7007908C60097
:100750007808C5007708C4007A207708B1007808C7
:10076000B2007908B3007A08B400B8007908B7007D
:100770007808B6007708B500BC01C030BB007F30F8
:10078000BA008830B900EF207A08A4007908A300E5
:100790007808A2007708A1002408B4002308B30059
:1007A0002208B2002108B1002808B8002708B700C5
:1007B0002608B6002508B500B92103193C2C2408E9
:1007C000C3002308C2002208C1002108C000C701DD
:1007D000C6014830C5008530C4007A207708B100D2
:1007E0007808B2007908B3007A08B400B800790834
:1007F000B7007808B6007708B500BC01BB0120300F
:10080000BA008130B900EF207A08AC007908AB005B
:100810007808AA007708A900B10131080420B10ABC
:10082000F70077080C1E122C990005303102031DC9
:100830000D2C88300C1E1A2C99000730B20032089B
:100840000420B20AF70077080C1E242C99001630F9
:100850003202031D1F2C893084002C08B6002B089F
:10086000B5002A08B4002908B3000330B7005B2A9A
:1008700025300C1E392C99006430B1002520B001C0
:10088000AF014830AE008530AD002C08B4002B0815
:10089000B3002A08B2002908B100B801B701B601B7
:1008A000B501B92103196E2C0715201120088316F4
:1008B000870083122E08F9002D08F800F90CF80CB7
:1008C000F90CF80CF90C78089500F90C790C303912
:1008D000F7001708CF3977049700742C07112011FF
:0C08E0002008831687008312902B630011
:02400E0038393F
:00000001FF
;PIC16F876A
