:1000000000308A0031280000223084008313000869
:10001000031917280630F800F701F70B0D28F80B25
:100020000C287B30F700F70B1328800B0A280034CC
:100030008C080319252883169808031D212883128C
:1000400025280130F800282883120030F800831694
:1000500083128A110A129328210899008A110A1220
:100060009928840183131F308305813083169900FA
:10007000A630980090308312980083161F149F14A6
:100080001F159F1107309C00FF308312A0008316BC
:100090001F149F141F159F1183121F109412A0127A
:1000A00020088316870083122016200883168700F5
:1000B0008312A01120088316870001308312940058
:1000C0000030831694000108C73908388100831274
:1000D00090010030F8009200003083169200073043
:1000E0009C0005081030F700F70B742800001C086E
:1000F00083120D1383169D0183120713871783162E
:100100008601831206140230A1009630A20004205A
:10011000A10B852806100230A1009630A200042011
:10012000A10B8D281828F808031999285430A1002C
:060130002C288228630068
:02400E0039393E
:00000001FF
;PIC16F876A
