:1000000002308A007E2A0000D232E332E234A012AB
:100010007510E437A026E139F43272000A00D232BA
:10002000E332E234A0127510E437A026E139F4324D
:1000300072000A00202665327310413AF530EC3424
:10004000FA30E43773000A00A018A0162010CD3053
:10005000733A6539A031EF36A037203B61366F39EE
:10006000A036E1347310F33467376933E931613A0C
:10007000693B6F002018A0162010CD30733A653907
:10008000A031EF36A037203B61366F39A036653797
:10009000EF39A039E933EE34E634E330F434F6379F
:1000A00000010A0083161F149F141F159F111F13B0
:1000B00083121F139F1383169F1383121F1494120E
:1000C000A512250883168700831225162508831696
:1000D000870085168312A51525088316870024300E
:1000E000831294000030831694000108C739083841
:1000F0008100831290010030F800920000308316D6
:100100009200831225152508831687008312970114
:10011000073083169C00050885001030F700F70BA8
:100120008F2800001C0883120D1383169D01831273
:100130008A110A129B2A831603178C170C140000CD
:1001400000000318CB2883120C087F390313A70083
:1001500003170D080313A80003170F080313A900C2
:1001600027080C1EB1289900280803178D000313D7
:10017000290803178F0083168C170C140000000049
:1001800083120313A60BC528C82883160317CB2890
:10019000EB288316031783120C0D0E0D7F39031302
:1001A000A70003170D080313A80003170F08031374
:1001B000A90027080C1EDA289900280803178D00CB
:1001C0000313290803178F008D0A03198F0A0310E0
:1001D0000313A60B9B2808002908F801280203181E
:1001E000F4282808F7000029F7010830AA00A80D14
:1001F000F70D290877020318F700F80DAA0BF72866
:10020000080078082608A8006430A900EC207708C8
:10021000A60078083030031D1429A71C1C29A71933
:100220001C29271A20301729A71127122714F8078D
:1002300078080C1E192999002608A8000A30A90080
:10024000EC207708A60078083030031D2D29A71967
:100250003229271C3229271A2030F80778080C1E6B
:100260002F2999003030A60726080C1E3529990041
:100270000800831603178C170C140000000083126B
:100280000C087F3903197F290313A60003170D08F3
:100290000313A70003170F080313A80026080C1E5A
:1002A0004F299900270803178D0003132808031707
:1002B0008F0083168C170C140000000083120C0DA5
:1002C0000E0D7F3903197F290313A60003170D08AC
:1002D0000313A70003170F080313A80026080C1E1A
:1002E0006F299900270803178D00031328080317A7
:1002F0008F008D0A03198F0A03133929031703137B
:1003000008008316141C7A2A8312241CB4291308AB
:10031000A100043003178D0000308F000310073058
:100320000313A6009B202108A6001B30A700012173
:10033000083003178D0000308F0003140A300313B8
:10034000A6009B200E3003178D0000308F00031392
:1003500039210D300C1EAA2999000A300C1EAE2935
:100360009900A41024104E2A1308A0002108A3000D
:100370002008A2000F3003178D0000308F000310FB
:1003800007300313A6009B202008A6001B30A700FF
:100390000121133003178D0000308F0003140A3041
:1003A0000313A6009B20193003178D0000308F0027
:1003B000031339210D300C1EDB2999000A300C1E65
:1003C000DF2999002218E6290610E729061483166A
:1003D00006108312A218EE298610EF2986148316C0
:1003E000861083122219F6290611F729061583169D
:1003F00006118312A219FE298611FF29861583167C
:1004000086118312221A062A0612072A0616831656
:1004100006128312A21A0E2A86120F2A8616831635
:1004200086128312221B162A0613172A0617831612
:1004300006138312A21B1E2A86131F2A86178316F1
:10044000861383122318262A0710272A071425103B
:100450002508831687008312A318302A8710312AB3
:100460008714A5102508831687001A3083120317F6
:100470008D0000308F0003133921233003178D00C6
:1004800000308F00031339210D300C1E452A9900CE
:100490000A300C1E492A9900A41424140030A41810
:1004A0000130A600260893008316140C031C552A5D
:1004B0008312A41C632A243003178D0000308F00A0
:1004C000031339216A2A3A3003178D0000308F0058
:1004D00003133921513003178D0000308F000313AF
:1004E00039210D300C1E722A99000A300C1E762A12
:1004F0009900831683128A110A129C2A840183139D
:100500001F308305813083169900A6309800903003
:1005100083129800A001A101A301A2012414A41038
:1005200083161F149F141F159F1107309C00FF3066
:0C0530008312A500522881299B2A630039
:02400E003A1E58
:00000001FF
;PIC16F876A
;CRC=78D3  CREATED="25-mai-10 04:59"
