:1000000000308A00042A0000FF00030E8301A100D3
:100010000A08A0008A010408A2007708A300780853
:10002000A4007908A5007A08A6007B08A70083131E
:1000300083128B1E1D280B193028220884002308E8
:10004000F7002408F8002508F9002608FA00270818
:10005000FB0020088A00210E8300FF0E7F0E09009E
:100060008A110A126A280A108A100A1182074F346C
:1000700070346134213470346134723461346434E6
:100080006134203464346534203465346D3465342F
:1000900072346734EA346E34633469346134003462
:1000A0000A108A100A11820756346F346334EA3416
:1000B0002034653473347434E13420346E346F3456
:1000C000203461346E346434613472342034253425
:1000D000643400340108833CC00040088100AC0A4D
:1000E0000319AD0A0B118A110A121D283A30840037
:1000F00083130008031989280630F800F701F70B6D
:100100007F28F80B7E287B30F700F70B8528800BC3
:100110007C28003405108510051185110034B901C3
:100120003808033C031CB428BA0138083A02031803
:10013000A8283A0836078400831337188317000865
:100140003202031DA6280130B900A828BA0A952852
:10015000B908031DB32838083607840083133718FD
:10016000831732088000B80A8A110A12AE2A0130B9
:10017000B8003808033C031CF6283808360784000A
:100180008313371883170008BA0001303802B9000A
:1001900039083607840083133718831700083A029A
:1001A0000318EB28013039073607F8003708FA0042
:1001B0000318FA0A3908360784008313371883179F
:1001C0000008BE007808840083137A1883173E085D
:1001D0008000B903C828013039073607840083132B
:1001E000371883173A088000B80AB9288A110A120A
:1001F000B22AAD01AC0138082C02031D03293908CD
:100200002D020319242905141930BA00762085140B
:100210001930BA00762005101930BA00762005157D
:100220001930BA00762085101930BA00762085156D
:100230001930BA00762005111930BA0076208511E0
:100240001930BA007620FB288A110A12F42AAD016F
:10025000AC0138082C02031D312939082D0203197D
:10026000522985151930BA00762005151930BA00C3
:10027000762085111930BA00762085141930BA001D
:10028000762005111930BA00762005141930BA000D
:10029000762085101930BA00762005101930BA0082
:1002A000762029298A110A12F42A3E08F8013D0213
:1002B00003185D293D08F7006929F7010830BF00E0
:1002C000BD0DF70D3E0877020318F700F80DBF0BC0
:1002D000602900342030381E3030B9003708F7006C
:1002E000B71F7929F709F70A7708B7002D30B90049
:1002F000B8173708BD006430BE0055217708B70035
:1003000030307807BA003708BD000A30BE005521EA
:1003100030307707BC0030307807BB003908F70071
:10032000B81D9429B81F3811381AA129B81FBC2943
:100330003819BC297708BA00B818BC297708BB005F
:10034000BC2930303A02031DBC297708BA0020309E
:10035000B900B81DAF293811B814B81FB810303023
:100360003B02031DBC297708BB002030BA00B81D32
:10037000AF29B810B81F3810381DC22939080C1E13
:10038000BF299900B81CC8293A080C1EC529990034
:10039000381CCE293B080C1ECB2999003C080C1EAA
:1003A000CF2999008A110A120A2B36088400831378
:1003B0003718831780010130B8003808033C031C4C
:1003C000012A013038023607F8003708FA0003180E
:1003D000FA0A380836078400831337188317000891
:1003E000BC007808840083137A1883173C088000C7
:1003F0003808360784008313371883178001B80A3A
:10040000DD298A110A120E2B840183131F30830504
:10041000813083169900A63098009030831298009E
:1004200083161F149F141F159F1107309C00831201
:10043000A801A901B301B401FF30B50083161F1450
:100440009F141F159F1183121F109412B5123508A7
:1004500083168700831235163508831687008312AA
:10046000B5113508831687000130831294000030DF
:10047000831694000108C03904388100831290016A
:100480000030F800920000308316920007309C0084
:1004900005081030F700F70B4B2A00001C088312E8
:1004A0000D1383169D018C1683128B16C0308B049E
:1004B00083308100AE01AF01B001B1010610003000
:1004C00083168500FE308600BF3087008312B5009A
:1004D000AD01AC018619742A8619742A1E30BA003F
:1004E00076200130B4006C2AB4080319902AB601B2
:1004F00036083320B60AF70077080C1E7D2A9900CB
:1005000018303602031D782A06102908AB00280887
:10051000AA008A20861DB401B4080319892A06148A
:10052000861C982A061D982A061E982A861AB22A20
:1005300086189C2A0130B2000619A02A0230B200A7
:10054000061AA42A0330B200861AA82A0430B20080
:10055000B7012E30B6003308B8008F28B7012E300F
:10056000B600B728AE080319172B2E0BB92AA9011C
:10057000A8012E08023C031DC02A0130A900A801D1
:100580002E08033C031DC72A0230A900A8012E082B
:10059000043C031DCE2A0330A900A8012B08290220
:1005A000031CE62A031DD82A28082A020318E62A73
:1005B0002A082802B6002908B7002B08031C2B0FB5
:1005C000B7023708B9003608B800F92828082A0207
:1005D000B6002B08B7002908031C290FB7023708FB
:1005E000B9003608B8002729AD01AC0106148A20ED
:1005F000B60136085020B60AF70077080C1EFE2A0E
:10060000990013303602031DF92A2E08B7001F3057
:10061000B8006A29B7012E30B600D5292C080A3C4B
:10062000031D0E2BAD08031D0E2B0610192B8A205F
:0E06300006142908AB002808AA00682A6300F7
:02400E0039393E
:00000001FF
;PIC16F876A
