:1000000000308A00BD2800002130840083130008DE
:10001000031917280630F800F701F70B0D28F80B25
:100020000C287B30F700F70B1328800B0A280034CC
:1000300083161F109F101F159F119F111F129F12D3
:100040001F1383129F131F1383169F1783121F14EE
:100050000F30A10004208A110A1210291F151F1940
:100060002F28A2011E08A1002108A400A301230833
:1000700083161E048312A1002408A2002108F800A0
:100080002208F9008A110A121429AB010408AA00F7
:100090002B10831B2B14A41F5528AA172A1EAA0A4B
:1000A000A309A409A30A0319A40A240EF038A60080
:1000B000A607E23EA700323EA90024080F39A70791
:1000C000A707A907E93EA800A807A807230E0F392C
:1000D000A807A907A80DA90DA909A90D23080F397B
:1000E000A907A60D0730A5000A30A907A803031C1D
:1000F0007528A807A703031C7928A707A603031CD4
:100100007D28A607A503031C8128253084008313BE
:1001100007302A052A1384032A05031D96282A1A64
:10012000840A2A1A96282030F700B3288407293039
:10013000040203192A170008F700031DA7282A1B29
:10014000A7282A1AB728AA19A7282030B228AA1F38
:10015000AF282D30F70084032A13AA13B328AA1559
:100160002A123030F70777080C1EB4289900840A49
:100170002A1F97288A110A122729840183131F3006
:100180008305813083169900A63098009030831241
:10019000980083161F149F141F159F1107309C0091
:1001A000FF308312A00083161F149F141F159F1188
:1001B00083121F109412A012200883168700831246
:1001C00020162008831687008312A01120088316AA
:1001D00087000130831294000030831694000108D8
:1001E000C73908388100831290010030F80092006E
:1001F00000308316920007309C0005081030F7008D
:10020000F70B002900001C0883120D1383169D01B3
:10021000FF3085008600BF3087008312A0001828B9
:100220006430A10004202E287908A2007808A100DB
:100230000D300C1E192999000A300C1E1D29990039
:10024000103084002208A4002108A30045281029AA
:02025000630049
:02400E0039393E
:00000001FF
;PIC16F876A
