:1000000000308A0059280000061400000610000085
:100010000034223084008313000803191D280130A6
:10002000F800F701F70B1228F80B11284A30F700F7
:10003000F70B18281B28800B0F280034FF3083167D
:100040008700831286140130A2000920871B26280E
:1000500083168701831286100130A2000920003424
:1000600006112108870004201E2000348316870112
:100070008312861006113830870004200F30A2004A
:10008000092004200F30A20009200630A1003020F2
:100090000E30A10030200130A10030208A110A1258
:1000A000A12806152108870004201E208A110A12A3
:1000B000A428840183131F30830583161F149F1403
:1000C0001F159F1107309C00FF308312A00083167C
:1000D0001F149F141F159F1183121F109412A0123A
:1000E00020088316870083122016200883168700B5
:1000F0008312A01120088316870001308312940018
:100100000030831694000108C73908388100831233
:1001100090010030F8009200003083169200073002
:100120009C0005080330F700F70B94281C08831285
:100130000D1383169D01FF30850086018700831211
:1001400036285330A10051280430A100FA30A20013
:100150000920A10BA6280130A1003020AE286300A1
:02400E0039393E
:00000001FF
;PIC16F876A
