:1000000000308A0026280000323084008313000864
:10001000031917280630F800F701F70B0D28F80B25
:100020000C287B30F700F70B1328800B0A288A1165
:100030000A122328803083169F0083129F011F1409
:100040000130B20004288A110A1281288401831326
:100050001F308305813083169900A63098009030B8
:100060008312980083161F149F141F159F110730C9
:100070009C00FF308312A000A101A201A301A401F2
:10008000A501A601A701A80183161F149F141F151F
:100090009F1183121F109412A0122008831687004C
:1000A0008312201620088316870085168312A01558
:1000B0002008831687003430831294004030831662
:1000C00094000108C039013881008312900100308A
:1000D000F800920000308316920007309C0005085B
:1000E0001030F700F70B722800001C0883120D1364
:1000F00083169D01FF3085008600BF308700831284
:100100001A28831685168312851A8A288610831664
:080110008610831281286300B0
:02400E0038393F
:00000001FF
;PIC16F876A
