:1000000000308A00CD2A00002530840083130008C8
:10001000031917280630F800F701F70B0D28F80B25
:100020000C287B30F700F70B1328800B0A280034CC
:10003000803083169F0083129F011F140130A5009A
:1000400004208A110A121F2BA501A6011F151F19D2
:100050002728A6011E08A5002508A600A5018316CD
:100060001E088312A5042508F8002608F9008A1145
:100070000A12202B8E30F7002608F8002508F90018
:10008000FA01F808031D4E287908F800F901083034
:10009000F702F808031D4E28F70156280310F81B35
:1000A0005528F90DF80DF7034E28F8138A110A1296
:1000B000252B32080319C928BA0036080319C928A4
:1000C000BA0703186A287F30BA02031CC92803192B
:1000D000C9286E288130BA070318C9283A08F700E2
:1000E000F801F901FA013308BE00BE173408BD005B
:1000F0003508BC001830BA00BB013C1C97283908F1
:10010000FA07031C8928F90A031D8928F80A03192C
:10011000BB173808F907031C9028F80A0319BB1706
:100120003708B400B4173408F8070318BB17BB0D21
:10013000F80CF90CFA0CBE0CBD0CBC0C0310BA0B7D
:100140007C280130F7070318C928F81BAE28BE0D1C
:10015000FA0DF90DF80DF7030319C928BE1FBF28C2
:10016000FA0A031DBF28F90A031DBF28F80A031D58
:10017000BF28F80CF90CFA0CF70A0319C928330840
:10018000BB003708BB06BB1FC728F817CD28F813DC
:10019000CD28F701F801F901FA0100342908031903
:1001A0009329B5002D0803199329B502031CDD28F6
:1001B0007F30B50703189329E3288130B502031C6B
:1001C0009329031993293508F700F801F901FA0179
:1001D000B4012A08B300B3172B08B2002C08B100F1
:1001E0001930B5003008B102031806290130B202F7
:1001F00003180629B30203180629B40203180629B6
:10020000B40AB30AB20A3008B10738292F08B2027B
:10021000031821290130B30203182129B40203185D
:100220002129B40AB30A2F08B2073008B107031C0A
:100230003829B20A031D3829B30A031D3829B40A24
:1002400038292E088038B302031837290130B40248
:1002500003183729B40A2E088038B3072F08B207CD
:10026000031C1529B30A031D1529B40A15297A148C
:10027000B50B3B2946290310B10DB20DB30DB40DDA
:100280000310FA0DF90DF80DB60DF228361C4E29A3
:100290000310F80CF90CFA0CB60C5129F7030319EA
:1002A0009329B61B7A290310B10DB20DB30DB40D0D
:1002B0003008B102031866290130B202031866291A
:1002C000B30203186629B402031C89292F08B2025D
:1002D000031871290130B30203187129B402031CF9
:1002E00089292E088038B30203187A290130B40214
:1002F000031C8929FA0A031D8929F90A031D892982
:10030000F80A031D8929F70A03199329F80CF90C37
:10031000FA0C2A08B5002E08B506B51F9129F81762
:100320009729F8139729F701F801F901FA018A11C1
:100330000A124B2B3208B63CB200FA013308B60061
:10034000B3170310B30CB40CB50CFA0CF90CF80C81
:10035000F70CB20BA129B61FB829F709F809F9095A
:10036000FA09F70A0319F80A0319F90A0319FA0A2C
:100370008A110A12252AF701F801F901FA01BA01D6
:10038000BB01BC01BD013908380437043604031928
:10039000F9292030BE000310B20DB30DB40DB50D18
:1003A000BA0DBB0DBC0DBD0D39083D02031DE22980
:1003B00038083C02031DE22937083B02031DE229ED
:1003C00036083A02031CF3293608BA023708031C20
:1003D000370FBB023808031C380FBC023908031C56
:1003E000390FBD020314F70DF80DF90DFA0DBE0B10
:1003F000CB293A308400831300340408AA0029086A
:10040000AC0003191C2A2808B5002708B4002608E8
:10041000B3002508B200B901B8012030B70082301E
:10042000B60059207A08A8007908A7007808A60025
:100430007708A500AC0B032A2808B5002708B400EC
:100440002608B3002508B2009A297A08A80079087E
:10045000A7007808A6007708A500A81F3C2AAA03D1
:10046000AA16A509A609A709A809A50A0319A60A93
:100470000319A70A0319A80A3B30B1009A30B0004B
:10048000CA30AF00AE010A30AC0029080319AA0A2D
:100490002808B5002708B4002608B3002508B200D4
:1004A0003108B9003008B8002F08B7002E08B60090
:1004B000BB210008A500840A0008A600840A0008E1
:1004C000A700840A0008A800FD308407F708031D70
:1004D0007C2A290A2C0203197C2A2A0803197E2A5D
:1004E0000F392C020319762A0318B22AAA1BB22A42
:1004F0002A1B7E2A2030AD2A2030AA05AA1E8D2A6A
:10050000AA122908031DAA037708AA002D300C1E81
:10051000872A99002A08F700AA0129082C02031D3E
:100520009C2A7708AA002E300C1E942A99002A08CB
:10053000F7002030AA0500303030AA1EAD2AAA12DA
:100540002908031DAA037708AA002D300C1EA62A2D
:1005500099002A08F700AA013030F70777080C1E27
:10056000AF2A99003108B5003008B4002F08B30055
:100570002E08B200B901B801B7010A30B600BB219C
:100580007A08B1007908B0007808AF007708AE00AB
:10059000AC0B482A8A110A12682B840183131F307E
:1005A0008305813083169900A6309800903083121D
:1005B000980083161F149F141F159F1107309C006D
:1005C000FF308312A00083161F149F141F159F1164
:1005D00083121F109412A012200883168700831222
:1005E00020162008831687008312A0112008831686
:1005F00087000130831294000030831694000108B4
:10060000C73908388100831290010030F800920049
:1006100000308316920007309C0005081030F70068
:10062000F70B102B00001C0883120D1383169D017D
:10063000FF3085008600BF308700831218282428E9
:100640007908A6007808A5003A28B501B401203041
:10065000B3008130B2007A08B9007908B800780890
:10066000B7007708B60059207708A5007808A600DB
:100670007908A7007A08A800AC007908AB007808D0
:10068000AA007708A900B001C030AF007F30AE00EB
:100690008830AD00CE287A08A4007908A300780835
:1006A000A2007708A1000D300C1E542B99000A30CF
:1006B0000C1E582B9900893084002408A8002308B8
:1006C000A7002208A6002108A5000330A900FD29E3
:0A06D0006430A50004201F2B630016
:02400E0038393F
:00000001FF
;PIC16F876A
