:1000000000308A007F290000FF00030E8301A10059
:100010000A08A0008A010408A2007708A300780853
:10002000A4007908A5007A08A6007B08A70083131E
:1000300083128B1E1D280B193028220884002308E8
:10004000F7002408F8002508F9002608FA00270818
:10005000FB0020088A00210E8300FF0E7F0E09009E
:100060008A110A12B2280A108A100A11820745342E
:100070004D34453452344734CA344E344334493411
:1000800041340A3400340A108A100A1182073234CB
:10009000303420346C346934743472346F347334D3
:1000A0000A3400340A108A100A11820731343034BD
:1000B00020346C346934743472346F3473340A34D9
:1000C00000340A108A100A11820765346E346334D2
:1000D000683465346E3464346F342034673461348A
:1000E0006C34E3346F340A3400340A108A100A1175
:1000F0008207673461346C34E3346F342034633402
:100100006834653469346F340A3400340A108A1054
:100110000A118207663469346D3421342034723414
:10012000653463346F346D346534E73461346E3470
:1001300064346F340A3400340A108A100A118207BA
:1001400041346734753461347234643461346E34EC
:1001500064346F342034673461346C34E3346F3486
:100160000A3400340108833CB00030088100AE0A34
:100170000319AF0A2E08713C031DC5282F08023C45
:10018000031DC528AF01AE01A90A0B118A110A127D
:100190001D2883168511831285110830F800D02898
:1001A0000000F817E128F813AD0C03188515031C9F
:1001B00085117817E1287813F80BD428DF28000080
:1001C0008515A7308400840BE328E628F81BD32884
:1001D000781BDB280034AC012C083320AC0AF70074
:1001E000AD00C9200B302C02031DEC289900861DA0
:1001F000FE288715071107108710F728871100348C
:1002000006181C2986181029AB012B084320AB0ABD
:10021000F700AD00C9200A302B02031D05291B2958
:10022000AB012B085220AB0AF700AD00C9200A3001
:100230002B02031D112907118A110A12F02983309C
:100240008100E0308B0429080E3C031C3529861DF3
:1002500034290B138B138B1B2A290108AB00EB20CD
:100260002B088100E0308B042329A9010B138B1389
:100270008B1B37290034A801AB012B086120AB0A86
:10028000F700AD00C9200F302B02031D3D29990056
:10029000071486184E291F211F214F291F210710DF
:1002A000AB012B087520AB0AF700AD00C9200C305C
:1002B0002B02031D512999000130A8008A110A124E
:1002C000F129861D6529EB207B29A80803197B29C4
:1002D00006196D29871407116829AB012B088620A0
:1002E000AB0AF700AD00C92011302B02031D6E29A7
:1002F000990007158710A8018A110A12F2298401B2
:1003000083131F3083058316851183128515831689
:100310001F149F141F159F1107309C00FF3083127C
:10032000AA0083161F149F141F159F1183121F10FC
:100330009412AA122A088316870083122A162A0802
:10034000831687008312AA112A08831687000130BA
:10035000831294000030831694000108C0390438D9
:100360008100831290010030F80092000030831663
:10037000920007309C0005081030F700F70BBE29EB
:1003800000001C0883120D1383169D01C0308312D8
:100390008B048B16FF30831685008600F0308700B3
:1003A0008312861DD529EB20F229AB012B089C2056
:1003B000AB0AF700AD00C92010302B02031DD6296F
:1003C0000330AC002E30AD00C920AC0BE2290A305E
:1003D000AD00C9209900061CEF290715EB2900295B
:0803E0003B296129D1296300CA
:02400E0039393E
:00000001FF
;PIC16F876A
