:1000000000308A0049280000FF00030E8301A10090
:100010000A08A0008A010408A2007708A300780853
:10002000A4007908A5007A08A6007B08A70083131E
:1000300083128C308400001C1F280C1832282208E0
:1000400084002308F7002408F8002508F900260892
:10005000FA002708FB0020088A00210E8300FF0E0B
:100060007F0E09008A110A12352861308F00A830EE
:100070008E0028183D2807113E2807152911290848
:100080008316870001308312A8060C108A110A1209
:100090001F28840183131F30830581308316990044
:1000A000A630980090308312980083161F149F1476
:1000B0001F159F1107309C0083122814FF30A900E0
:1000C00083161F149F141F159F1183121F10941263
:1000D000A912290883168700831229162908831676
:1000E00087008312A9112908831687000130831223
:1000F00094000030831694000108C0390138810053
:100100009530831290000030F800063892005D3080
:100110008316920007309C0005081030F700F70B9B
:100120008F2800001C0883120D1383169D01972849
:0201300063006A
:02400E0038393F
:00000001FF
;PIC16F876A
