:1000000000308A0089280000FF00030E8301A10050
:100010000A08A0008A010408A2007708A300780853
:10002000A4007908A5007A08A6007B08A70083131E
:1000300083128B1E1D280B193028220884002308E8
:10004000F7002408F8002508F9002608FA00270818
:10005000FB0020088A00210E8300FF0E7F0E09009E
:100060008A110A123328A90803194928AA08031D6E
:100070004328AB08031D43280130AB002C30AA00F5
:100080000130A8004828A8012A080319AB03AA03D5
:100090004E28A8010130AB002C30AA000B118A11A8
:1000A0000A121D282D3084008313000803196628C6
:1000B0000130F800F701F70B5B28F80B5A284A309B
:1000C000F700F70B61286428800B582800340130B2
:1000D00086006430AD00522086080319752803108D
:1000E000860D6430AD0052206C288A110A12EB286C
:1000F000803086006430AD005220860803198628BF
:100100000310860C6430AD0052207D288A110A123B
:10011000EB28840183131F3083051930831699005F
:10012000A630980090308312980083161F149F14F5
:100130001F159F1107309C00FF308312AC008316FF
:100140001F149F141F159F1183121F109412AC12BD
:100150002C088316870083122C162C088316870020
:100160008312AC112C08831687000130831294008F
:100170000030831694000108C039013881008312D1
:1001800090010030F8009200003083169200073092
:100190009C0005080330F700F70BCC281C088312DD
:1001A0000D1383169D01C03083128B048B16FF3014
:1001B00083168500860187008312A8010130AB00F9
:1001C0002C30AA000130A900A8080319EB288708E1
:0A01D000031967287828E42863006B
:02400E0039393E
:00000001FF
;PIC16F876A
