:1000000003308A001F2B0000A029EC30F632A01824
:100010002038653265106F10F630EC377210ED3213
:10002000EE377310F33467376933E931613A693B6E
:10003000EF1000000A00D232E332E234A012751051
:10004000E437A029EC30F632A01800000A00A029FD
:10005000EC30F632A0182038653265106F10F6309B
:10006000EC377210ED30E939A039E933EE34E6347B
:10007000E330F434F63700010A00D232E332E234DE
:10008000A0127510E437A029EC30F632A018000158
:100090000A00CD306E32E5342038613961106F10BE
:1000A0005336613B651032106F10F630EC3772102A
:1000B000E230693C6F000A00CD306E32E534203802
:1000C000613961106F105336613B651032106F104B
:1000D000F630EC3772106136F43700010A00D23284
:1000E000E332E234A018A0162029E538F534F334C1
:1000F000E3306F10E437A029EC30F63220192038B5
:1001000065366F10F630EC3772106136F437000147
:10011000D232E332E2342018A0162029E538F53433
:10012000F334E3306F10E437A029EC30F6322019B5
:10013000203865366F10F630EC377210E230693CCB
:100140006F000A0083161F149F141F159F111F13A1
:1001500083121F139F1383169F1383121F1494126D
:10016000A012200883168700831220162008831609
:1001700087008312A0112008831687002130831284
:1001800094000030831694000108C73908388100B4
:10019000831290010030F800920000308316920024
:1001A00083122015200883168700831297010730D9
:1001B00083169C00050885001030F700F70BDE2839
:1001C00000001C0883120D1383169D0183128A11EF
:1001D0000A12512B06108316061083128A110A1276
:1001E000522B831603178C170C1400000000831287
:1001F0000C087F39031937290313A50003170D08CD
:100200000313A60003170F080313A70025080C1EED
:1002100007299900260803178D00031327080317E1
:100220008F0083168C170C140000000083120C0D35
:100230000E0D7F39031937290313A50003170D0885
:100240000313A60003170F080313A70025080C1EAD
:1002500027299900260803178D0003132708031781
:100260008F008D0A03198F0A0313F1280317031354
:100270000800831603178C170C14000000000318E5
:10028000692983120C087F390313A60003170D0890
:100290000313A70003170F080313A80026080C1E5A
:1002A0004F299900270803178D0003132808031707
:1002B0008F0083168C170C140000000083120313A8
:1002C000A50B6329662983160317692989298316D3
:1002D000031783120C0D0E0D7F390313A6000317AD
:1002E0000D080313A70003170F080313A80026081F
:1002F0000C1E78299900270803178D00031328087E
:1003000003178F008D0A03198F0A03100313A50B1F
:10031000392908002808F80127020318922927081C
:10032000F7009E29F7010830A900A70DF70D28084E
:1003300077020318F700F80DA90B95290800780833
:100340002508A7006430A8008A217708A50078084E
:100350003030031DB229A61CBA29A619BA29261ABB
:100360002030B529A61126122614F80778080C1E8D
:10037000B72999002508A7000A30A8008A21770824
:10038000A50078083030031DCB29A619D029261CDA
:10039000D029261A2030F80778080C1ECD2999009C
:1003A0003030A50725080C1ED32999000800241C0D
:1003B0002A2A130893018316140C031CDC29043029
:1003C000831203178D0000308F000313F1201A30C1
:1003D00003178D0000308F000313F1200D300C1E29
:1003E000EF2999000A300C1EF32999002410831676
:1003F000141CF829141C002A83121308A300831666
:100400001B30831203178D0000308F00031007305C
:100410000313A50039212308A5001B30A6009F2146
:100420001F3003178D0000308F0003140B300313AF
:10043000A5003921263003178D0000308F000313EB
:10044000F1200D300C1E222A99000A300C1E262A9B
:1004500099007B2A1308013093008316140C031CA7
:100460002E2A2730831203178D0000308F000313CC
:10047000F1203C3003178D0000308F000313F12072
:100480000D300C1E412A99000A300C1E452A990095
:1004900024148316141C4A2A141C522A831213088B
:1004A000A20083163D30831203178D0000308F00A9
:1004B000031007300313A50039212208A5001B30C3
:1004C000A6009F21413003178D0000308F000314D8
:1004D0000B300313A5003921483003178D0000307D
:1004E0008F000313F1200D300C1E742A99000A307E
:1004F0000C1E782A99008A110A12532B06148316AF
:10050000061083128A110A12542B2630840083139A
:1005100000080319982A0630F800F701F70B8E2A15
:10052000F80B8D2A7B30F700F70B942A800B8B2A6F
:10053000080086108316861083128A110A125C2B1B
:10054000A41CCC2A230893008316140C031CA52A90
:100550004930831203178D0000308F000313F12000
:100560005B3003178D0000308F000313F1200D3036
:100570000C1EB82A99000A300C1EBC2A9900A4103F
:100580008316141CC12A141CCA2A8312241113189E
:1005900024158316F42A8312220893008316140C60
:1005A000031CCF2A5C30831203178D0000308F00AC
:1005B0000313F1206E3003178D0000308F000313FA
:1005C000F1200D300C1EE22A99000A300C1EE62A9A
:1005D0009900A4148316141CEB2A141CF42A831209
:1005E00024111318241583168312241DFF2A6F303B
:1005F00003178D0000308F000313F120062B883085
:1006000003178D0000308F000313F120A130031772
:100610008D0000308F000313F1200D300C1E0E2BC7
:1006200099000A300C1E122B99008A110A125D2BB8
:1006300086148316861083128A110A125E2B840197
:1006400083131F30830594122030940000308316EA
:1006500094008312A01220088316870083122016AC
:100660002008831687008312A011200883168700B4
:1006700081309900A63098009030831298000130A4
:10068000A100A201A3012414A414241183161F1491
:100690009F141F159F1107309C00FF308312A0008C
:1006A000A228EA28D7297E2A0230A5009630A60083
:1006B0008522A50B562B992AA02A182BC830A600F4
:0606C0008522512B6300AE
:02400E003A1E58
:00000001FF
;PIC16F876A
;CRC=F11C  CREATED="25-mai-10 04:59"
