:1000000002308A00BB2A0000D630EC377210E43789
:1000100020386F3A6537E334EF36653AF2373A10F5
:10002000252675000A00D630EC377210A53A203824
:10003000613961106F10CD30733A653900140A00D0
:10004000D630EC377210A53A2038613961106F1044
:10005000CD30733A653900010A00D232E332E2341E
:10006000A018A0162010D630EC3772106136F43785
:1000700020326F10CD30733A65390001D232E3324D
:10008000E2342018A016202B61366F392031E1347C
:10009000F83720326F10CD30733A653900010A000D
:1000A00083161F109F141F159F151F1383121F17F0
:1000B0009F1783169F1783121F149412A3122308ED
:1000C000831687008312231623088316870085165C
:1000D0008312A3152308831687002430831294000B
:1000E0000030831694000108C73908388100831254
:1000F00090010030F80092000030831692008312C5
:10010000231523088316870083129701073083166F
:100110009C00050885001030F700F70B8D280000C3
:100120001C0883120D1383169D0183128A110A1273
:10013000D52A831603178C170C140000000003182F
:10014000C92883120C087F390313A60003170D0872
:100150000313A70003170F080313A80026080C1E9B
:10016000AF289900270803178D00031328080317E9
:100170008F0083168C170C140000000083120313E9
:10018000A50BC328C62883160317C928E928831698
:10019000031783120C0D0E0D7F390313A6000317EE
:1001A0000D080313A70003170F080313A800260860
:1001B0000C1ED8289900270803178D000313280860
:1001C00003178F008D0A03198F0A03100313A50B61
:1001D00099280800831603178C170C1400000000E0
:1001E00083120C087F39031930290313A400031765
:1001F0000D080313A50003170F080313A600240816
:100200000C1E00299900250803178D0003132608EA
:1002100003178F0083168C170C1400000000831244
:100220000C0D0E0D7F39031930290313A400031799
:100230000D080313A50003170F080313A6002408D5
:100240000C1E20299900250803178D00031326088A
:1002500003178F008D0A03198F0A0313EA28031767
:10026000031308000030F8001F08C73978049F0006
:100270001F151F19392983161E088312A0001E0896
:10028000A100043003178D0000308F0003101830D8
:100290000313A5009920103084002108A500200830
:1002A000A400AC010408AB002C10831B2C14250EF9
:1002B000F038A700A707E23EA800323EAA002508B2
:1002C0000F39A807A807AA07E93EA900A907A907A7
:1002D000240E0F39A907AA07A90DAA0DAA09AA0D6C
:1002E00024080F39AA07A70D0730A6000A30AA076D
:1002F000A903031C7729A907A803031C7B29A807C6
:10030000A703031C7F29A707A603031C8329263004
:100310008400831307302B052B1384072A30040233
:1003200003192B170008F700031D9E292B1B9E297C
:100330002B1AA629AB199E292030A129AB152B1207
:100340003030F70777080C1EA3299900840A2B1F69
:100350008E29123003178D0000308F000313EA201E
:100360000D300C1EB12999000A300C1EB5299900D8
:100370008A110A12D62A2A08F80127020318C3296B
:100380002708F700CF29F7010830A900A70DF70DBE
:10039000280877020318F700F80DA90BC6290800F2
:1003A00078082508A7006430A800BB217708A500BD
:1003B00078083030031DE329A61CEB29A619EB2988
:1003C000261A2030E629A61126122614F8077808E6
:1003D0000C1EE82999002508A7000A30A800BB21B7
:1003E0007708A50078083030031DFC29A619012ADA
:1003F000261C012A261A2030F80778080C1EFE2930
:1004000099003030A50725080C1E042A9900080021
:100410008316141CA12A83122210131822142218E6
:10042000452A2008A400240893008316140C031CFA
:10043000162A83122008A400133003178D00003001
:100440008F00031006300313A50099202408A5008F
:100450001B30A600D021173003178D0000308F000D
:1004600003100E300313A50099201F3003178D00D1
:1004700000308F000313EA200D300C1E3D2A990036
:100480000A300C1E412A9900802A221C802A8316D9
:10049000141C4C2A8312802A83122108A4002408E9
:1004A00093008316140C031C522A83122108A40003
:1004B000203003178D0000308F0003100630031327
:1004C000A50099202408A5001B30A600D0212430C7
:1004D00003178D0000308F0003100E300313A500AA
:1004E00099202C3003178D0000308F000313EA2071
:1004F0000D300C1E792A99000A300C1E7D2A9900B5
:10050000221C8A2A2D3003178D0000308F00031320
:10051000EA20912A3E3003178D0000308F0003132C
:10052000EA204F3003178D0000308F000313EA20BC
:100530000D300C1E992A99000A300C1E9D2A990034
:10054000831683128A110A12D72A24308400831357
:1005500000080319B82A0630F800F701F70BAE2A95
:10056000F80BAD2A7B30F700F70BB42A800BAB2ACF
:100570008A110A12DA2A840183131F30830581301D
:1005800083169900A6309800903083129800A1013C
:10059000A001221083161F149F141F159F110730EE
:1005A0009C00FF308312A30050283229082A96307D
:0805B000A400A52AD52A63006E
:02400E003A1E58
:00000001FF
;PIC16F876A
;CRC=2F2E  CREATED="25-mai-10 04:59"
