:1000000000308A003B280000213084008313000860
:10001000031918280130F800F701F70B0D28F80B29
:100020000C284A30F700F70B13281628800B0A28F3
:100030000034013086006430A100042086080319D2
:1000400027280310860D6430A10004201E288A1181
:100050000A128E28803086006430A10004208608B1
:10006000031938280310860C6430A10004202F28BF
:100070008A110A128E28840183131F3083051930D8
:1000800083169900A630980090308312980083164A
:100090001F149F141F159F1107309C00FF308312FF
:1000A000A00083161F149F141F159F1183121F1089
:1000B0009412A012200883168700831220162008AD
:1000C000831687008312A011200883168700013051
:1000D000831294000030831694000108C739083851
:1000E0008100831290010030F800920000308316E6
:1000F000920007309C0005080330F700F70B7E28BC
:100100001C0883120D1383169D01FF3085008601A4
:10011000870083128708031919282A288A28630070
:02400E0039393E
:00000001FF
;PIC16F876A
