:1000000000308A0048280000233084008313000851
:10001000031917280630F800F701F70B0D28F80B25
:100020000C287B30F700F70B1328800B0A288A1165
:100030000A124128A101A1012108073C031C4528FF
:1000400007139A01071B9A0A0030071B0130FA01B7
:10005000840083137A1883170008A2008400831396
:10006000231883170030000403193C280C1E36287F
:1000700000089900840A32282830A200FA30A30030
:100080000428A20B3E28A10A1C288A110A129828CB
:10009000840183131F308305813083169900A630B5
:1000A000980090308312980083161F149F141F1518
:1000B0009F1107309C00FF308312A00083161F148D
:1000C0009F141F159F1183121F109412A012200855
:1000D0008316870083122016200883168700831258
:1000E000A01120088316870001308312940000308D
:1000F000831694000108C7390838810083129001E3
:100100000030F800920000308316920007309C0007
:1001100005081030F700F70B8B2800001C0883122D
:100120000D1383169D01BF3087008312A0001A288B
:0401300097286300A9
:02400E0038393F
:00000001FF
;PIC16F876A
